{
  "_format": "hh-sol-artifact-1",
  "contractName": "StreamRollV1",
  "sourceName": "contracts/StreamRollV1.sol",
  "abi": [
    {
      "inputs": [],
      "stateMutability": "nonpayable",
      "type": "constructor"
    },
    {
      "anonymous": false,
      "inputs": [
        {
          "indexed": false,
          "internalType": "string",
          "name": "",
          "type": "string"
        },
        {
          "indexed": false,
          "internalType": "address",
          "name": "",
          "type": "address"
        },
        {
          "indexed": false,
          "internalType": "uint256",
          "name": "",
          "type": "uint256"
        }
      ],
      "name": "Log",
      "type": "event"
    },
    {
      "inputs": [
        {
          "internalType": "address",
          "name": "",
          "type": "address"
        }
      ],
      "name": "balances",
      "outputs": [
        {
          "internalType": "uint256",
          "name": "",
          "type": "uint256"
        }
      ],
      "stateMutability": "view",
      "type": "function"
    },
    {
      "inputs": [
        {
          "internalType": "uint256",
          "name": "_amount",
          "type": "uint256"
        }
      ],
      "name": "borrowFromCompound",
      "outputs": [
        {
          "internalType": "bool",
          "name": "",
          "type": "bool"
        }
      ],
      "stateMutability": "payable",
      "type": "function"
    },
    {
      "inputs": [
        {
          "internalType": "address",
          "name": "",
          "type": "address"
        }
      ],
      "name": "borrowedBalances",
      "outputs": [
        {
          "internalType": "uint256",
          "name": "",
          "type": "uint256"
        }
      ],
      "stateMutability": "view",
      "type": "function"
    },
    {
      "inputs": [
        {
          "internalType": "bytes",
          "name": "checkData",
          "type": "bytes"
        }
      ],
      "name": "checkUpkeep",
      "outputs": [
        {
          "internalType": "bool",
          "name": "upkeepNeeded",
          "type": "bool"
        },
        {
          "internalType": "bytes",
          "name": "performData",
          "type": "bytes"
        }
      ],
      "stateMutability": "view",
      "type": "function"
    },
    {
      "inputs": [
        {
          "internalType": "address",
          "name": "",
          "type": "address"
        }
      ],
      "name": "checkout",
      "outputs": [
        {
          "internalType": "uint256",
          "name": "",
          "type": "uint256"
        }
      ],
      "stateMutability": "view",
      "type": "function"
    },
    {
      "inputs": [
        {
          "internalType": "address",
          "name": "_requested",
          "type": "address"
        }
      ],
      "name": "getBalance",
      "outputs": [
        {
          "internalType": "uint256",
          "name": "",
          "type": "uint256"
        }
      ],
      "stateMutability": "view",
      "type": "function"
    },
    {
      "inputs": [
        {
          "internalType": "address",
          "name": "_requested",
          "type": "address"
        }
      ],
      "name": "getCheckout",
      "outputs": [
        {
          "internalType": "uint256",
          "name": "",
          "type": "uint256"
        }
      ],
      "stateMutability": "view",
      "type": "function"
    },
    {
      "inputs": [
        {
          "internalType": "uint256",
          "name": "_amount",
          "type": "uint256"
        }
      ],
      "name": "getEtherBack",
      "outputs": [
        {
          "internalType": "bool",
          "name": "",
          "type": "bool"
        }
      ],
      "stateMutability": "nonpayable",
      "type": "function"
    },
    {
      "inputs": [],
      "name": "interval",
      "outputs": [
        {
          "internalType": "uint256",
          "name": "",
          "type": "uint256"
        }
      ],
      "stateMutability": "view",
      "type": "function"
    },
    {
      "inputs": [],
      "name": "lastTimeStamp",
      "outputs": [
        {
          "internalType": "uint256",
          "name": "",
          "type": "uint256"
        }
      ],
      "stateMutability": "view",
      "type": "function"
    },
    {
      "inputs": [],
      "name": "math",
      "outputs": [
        {
          "internalType": "uint256",
          "name": "",
          "type": "uint256"
        }
      ],
      "stateMutability": "nonpayable",
      "type": "function"
    },
    {
      "inputs": [],
      "name": "number",
      "outputs": [
        {
          "internalType": "uint256",
          "name": "",
          "type": "uint256"
        }
      ],
      "stateMutability": "view",
      "type": "function"
    },
    {
      "inputs": [
        {
          "internalType": "bytes",
          "name": "performData",
          "type": "bytes"
        }
      ],
      "name": "performUpkeep",
      "outputs": [],
      "stateMutability": "nonpayable",
      "type": "function"
    },
    {
      "inputs": [
        {
          "internalType": "uint256",
          "name": "_repayAmount",
          "type": "uint256"
        }
      ],
      "name": "repayDebt",
      "outputs": [
        {
          "internalType": "bool",
          "name": "",
          "type": "bool"
        }
      ],
      "stateMutability": "nonpayable",
      "type": "function"
    },
    {
      "inputs": [],
      "name": "returnBorrowedBalances",
      "outputs": [
        {
          "internalType": "uint256",
          "name": "",
          "type": "uint256"
        }
      ],
      "stateMutability": "view",
      "type": "function"
    },
    {
      "inputs": [],
      "name": "streamRollTotalBorrowed",
      "outputs": [
        {
          "internalType": "uint256",
          "name": "",
          "type": "uint256"
        }
      ],
      "stateMutability": "nonpayable",
      "type": "function"
    },
    {
      "inputs": [],
      "name": "supplyEthToCompound",
      "outputs": [
        {
          "internalType": "bool",
          "name": "",
          "type": "bool"
        }
      ],
      "stateMutability": "payable",
      "type": "function"
    },
    {
      "inputs": [
        {
          "internalType": "uint256",
          "name": "_amount",
          "type": "uint256"
        },
        {
          "internalType": "address payable",
          "name": "_to",
          "type": "address"
        }
      ],
      "name": "transferBack",
      "outputs": [
        {
          "internalType": "bool",
          "name": "",
          "type": "bool"
        }
      ],
      "stateMutability": "nonpayable",
      "type": "function"
    },
    {
      "stateMutability": "payable",
      "type": "receive"
    }
  ],
  "bytecode": "0x60a060405234801561001057600080fd5b507341b5844f4680a8c38fbb695b7f9cfd1f64474a726000806101000a81548173ffffffffffffffffffffffffffffffffffffffff021916908373ffffffffffffffffffffffffffffffffffffffff16021790555073f0d0eb522cfa50b716b3b1604c4f0fa6f04376ad600160006101000a81548173ffffffffffffffffffffffffffffffffffffffff021916908373ffffffffffffffffffffffffffffffffffffffff160217905550735eae89dc1c671724a672ff0630122ee834098657600260006101000a81548173ffffffffffffffffffffffffffffffffffffffff021916908373ffffffffffffffffffffffffffffffffffffffff16021790555060b460808181525050426003819055506080516120a9610141600039600081816107240152610a9e01526120a96000f3fe60806040526004361061010d5760003560e01c8063947a36fb11610095578063d6264b7511610064578063d6264b75146103ca578063e7dd62c014610407578063f491359a14610432578063f5837ada1461045d578063f8b2cb4f1461047b57610114565b8063947a36fb14610307578063addf380414610332578063b71490041461035d578063d2cbf04b1461039a57610114565b80636b09de45116100dc5780636b09de45146101e75780636e04ff0d146102245780636fb9ec5d14610262578063728d472f1461029f5780638381f58a146102dc57610114565b806327e235e3146101195780633dae0d1a146101565780633f3b3b27146101935780634585e33b146101be57610114565b3661011457005b600080fd5b34801561012557600080fd5b50610140600480360381019061013b91906114e2565b6104b8565b60405161014d9190611b75565b60405180910390f35b34801561016257600080fd5b5061017d600480360381019061017891906114e2565b6104d0565b60405161018a9190611b75565b60405180910390f35b34801561019f57600080fd5b506101a86104e8565b6040516101b59190611b75565b60405180910390f35b3480156101ca57600080fd5b506101e560048036038101906101e09190611585565b6104ee565b005b3480156101f357600080fd5b5061020e600480360381019061020991906115d2565b610513565b60405161021b9190611976565b60405180910390f35b34801561023057600080fd5b5061024b60048036038101906102469190611585565b61071e565b604051610259929190611991565b60405180910390f35b34801561026e57600080fd5b50610289600480360381019061028491906115d2565b6107a2565b6040516102969190611976565b60405180910390f35b3480156102ab57600080fd5b506102c660048036038101906102c191906114e2565b610a4d565b6040516102d39190611b75565b60405180910390f35b3480156102e857600080fd5b506102f1610a96565b6040516102fe9190611b75565b60405180910390f35b34801561031357600080fd5b5061031c610a9c565b6040516103299190611b75565b60405180910390f35b34801561033e57600080fd5b50610347610ac0565b6040516103549190611b75565b60405180910390f35b34801561036957600080fd5b50610384600480360381019061037f91906114e2565b610ada565b6040516103919190611b75565b60405180910390f35b6103b460048036038101906103af91906115d2565b610af2565b6040516103c19190611976565b60405180910390f35b3480156103d657600080fd5b506103f160048036038101906103ec919061162c565b610e6b565b6040516103fe9190611976565b60405180910390f35b34801561041357600080fd5b5061041c611127565b6040516104299190611b75565b60405180910390f35b34801561043e57600080fd5b5061044761116e565b6040516104549190611b75565b60405180910390f35b610465611222565b6040516104729190611976565b60405180910390f35b34801561048757600080fd5b506104a2600480360381019061049d91906114e2565b61133c565b6040516104af9190611b75565b60405180910390f35b60056020528060005260406000206000915090505481565b60066020528060005260406000206000915090505481565b60035481565b426003819055506104fd610ac0565b5061050e662386f26fc10000610af2565b505050565b600080734f96fe3b7a6cf9725f59d353f723c1bdb64ca6aa90508073ffffffffffffffffffffffffffffffffffffffff1663095ea7b373f0d0eb522cfa50b716b3b1604c4f0fa6f04376ad856040518363ffffffff1660e01b815260040161057c92919061192b565b602060405180830381600087803b15801561059657600080fd5b505af11580156105aa573d6000803e3d6000fd5b505050506040513d601f19601f820116820180604052508101906105ce9190611558565b506000600160009054906101000a900473ffffffffffffffffffffffffffffffffffffffff1673ffffffffffffffffffffffffffffffffffffffff16630e752702856040518263ffffffff1660e01b815260040161062c9190611b75565b602060405180830381600087803b15801561064657600080fd5b505af115801561065a573d6000803e3d6000fd5b505050506040513d601f19601f8201168201806040525081019061067e91906115ff565b146106be576040517f08c379a00000000000000000000000000000000000000000000000000000000081526004016106b590611b35565b60405180910390fd5b82600760003373ffffffffffffffffffffffffffffffffffffffff1673ffffffffffffffffffffffffffffffffffffffff168152602001908152602001600020600082825461070d9190611ca8565b925050819055506001915050919050565b600060607f0000000000000000000000000000000000000000000000000000000000000000600354426107519190611ca8565b11915083838080601f016020809104026020016040519081016040528093929190818152602001838380828437600081840152601f19601f8201169050808301925050505050505090509250929050565b600080600560003373ffffffffffffffffffffffffffffffffffffffff1673ffffffffffffffffffffffffffffffffffffffff16815260200190815260200160002054116107ef57600080fd5b81600560003373ffffffffffffffffffffffffffffffffffffffff1673ffffffffffffffffffffffffffffffffffffffff168152602001908152602001600020541015610871576040517f08c379a0000000000000000000000000000000000000000000000000000000008152600401610868906119e1565b60405180910390fd5b60008060009054906101000a900473ffffffffffffffffffffffffffffffffffffffff1673ffffffffffffffffffffffffffffffffffffffff1663852a12e3846040518263ffffffff1660e01b81526004016108cd9190611b75565b602060405180830381600087803b1580156108e757600080fd5b505af11580156108fb573d6000803e3d6000fd5b505050506040513d601f19601f8201168201806040525081019061091f91906115ff565b1461095f576040517f08c379a000000000000000000000000000000000000000000000000000000000815260040161095690611a21565b60405180910390fd5b81600560003373ffffffffffffffffffffffffffffffffffffffff1673ffffffffffffffffffffffffffffffffffffffff16815260200190815260200160002060008282546109ae9190611ca8565b9250508190555081600660003373ffffffffffffffffffffffffffffffffffffffff1673ffffffffffffffffffffffffffffffffffffffff1681526020019081526020016000206000828254610a049190611c52565b925050819055507f31f37e75fc861191c989b3f8011596a4c0dd2bd2b255a7072a7d94fdb895a7243383604051610a3c929190611af9565b60405180910390a160019050919050565b6000600660008373ffffffffffffffffffffffffffffffffffffffff1673ffffffffffffffffffffffffffffffffffffffff168152602001908152602001600020549050919050565b60045481565b7f000000000000000000000000000000000000000000000000000000000000000081565b60006002600454610ad19190611c52565b60048190555090565b60076020528060005260406000206000915090505481565b600080600267ffffffffffffffff811115610b1057610b0f611df8565b5b604051908082528060200260200182016040528015610b3e5781602001602082028036833780820191505090505b5090507341b5844f4680a8c38fbb695b7f9cfd1f64474a7281600081518110610b6a57610b69611dc9565b5b602002602001019073ffffffffffffffffffffffffffffffffffffffff16908173ffffffffffffffffffffffffffffffffffffffff168152505073f0d0eb522cfa50b716b3b1604c4f0fa6f04376ad81600181518110610bcd57610bcc611dc9565b5b602002602001019073ffffffffffffffffffffffffffffffffffffffff16908173ffffffffffffffffffffffffffffffffffffffff16815250506000600260009054906101000a900473ffffffffffffffffffffffffffffffffffffffff1673ffffffffffffffffffffffffffffffffffffffff1663c2998238836040518263ffffffff1660e01b8152600401610c649190611954565b600060405180830381600087803b158015610c7e57600080fd5b505af1158015610c92573d6000803e3d6000fd5b505050506040513d6000823e3d601f19601f82011682018060405250810190610cbb919061150f565b9050600081600081518110610cd357610cd2611dc9565b5b602002602001015114610d1b576040517f08c379a0000000000000000000000000000000000000000000000000000000008152600401610d1290611a01565b60405180910390fd5b6000600160009054906101000a900473ffffffffffffffffffffffffffffffffffffffff1673ffffffffffffffffffffffffffffffffffffffff1663c5ebeaec866040518263ffffffff1660e01b8152600401610d789190611b75565b602060405180830381600087803b158015610d9257600080fd5b505af1158015610da6573d6000803e3d6000fd5b505050506040513d601f19601f82011682018060405250810190610dca91906115ff565b14610e0a576040517f08c379a0000000000000000000000000000000000000000000000000000000008152600401610e0190611a41565b60405180910390fd5b83600760003373ffffffffffffffffffffffffffffffffffffffff1673ffffffffffffffffffffffffffffffffffffffff1681526020019081526020016000206000828254610e599190611c52565b92505081905550600192505050919050565b600080600660003373ffffffffffffffffffffffffffffffffffffffff1673ffffffffffffffffffffffffffffffffffffffff1681526020019081526020016000205411610eee576040517f08c379a0000000000000000000000000000000000000000000000000000000008152600401610ee5906119c1565b60405180910390fd5b82600660003373ffffffffffffffffffffffffffffffffffffffff1673ffffffffffffffffffffffffffffffffffffffff168152602001908152602001600020541015610f70576040517f08c379a0000000000000000000000000000000000000000000000000000000008152600401610f67906119e1565b60405180910390fd5b8173ffffffffffffffffffffffffffffffffffffffff163373ffffffffffffffffffffffffffffffffffffffff1614610fde576040517f08c379a0000000000000000000000000000000000000000000000000000000008152600401610fd590611a61565b60405180910390fd5b6000808373ffffffffffffffffffffffffffffffffffffffff1685604051611005906118fb565b60006040518083038185875af1925050503d8060008114611042576040519150601f19603f3d011682016040523d82523d6000602084013e611047565b606091505b50915091508161108c576040517f08c379a000000000000000000000000000000000000000000000000000000000815260040161108390611b55565b60405180910390fd5b84600660003373ffffffffffffffffffffffffffffffffffffffff1673ffffffffffffffffffffffffffffffffffffffff16815260200190815260200160002060008282546110db9190611ca8565b925050819055507f31f37e75fc861191c989b3f8011596a4c0dd2bd2b255a7072a7d94fdb895a7243386604051611113929190611abd565b60405180910390a160019250505092915050565b6000600760003373ffffffffffffffffffffffffffffffffffffffff1673ffffffffffffffffffffffffffffffffffffffff16815260200190815260200160002054905090565b6000600160009054906101000a900473ffffffffffffffffffffffffffffffffffffffff1673ffffffffffffffffffffffffffffffffffffffff166317bfdfbc306040518263ffffffff1660e01b81526004016111cb9190611910565b602060405180830381600087803b1580156111e557600080fd5b505af11580156111f9573d6000803e3d6000fd5b505050506040513d601f19601f8201168201806040525081019061121d91906115ff565b905090565b60008060009054906101000a900473ffffffffffffffffffffffffffffffffffffffff1673ffffffffffffffffffffffffffffffffffffffff16631249c58b346040518263ffffffff1660e01b81526004016000604051808303818588803b15801561128d57600080fd5b505af11580156112a1573d6000803e3d6000fd5b505050505034600560003373ffffffffffffffffffffffffffffffffffffffff1673ffffffffffffffffffffffffffffffffffffffff16815260200190815260200160002060008282546112f59190611c52565b925050819055507f31f37e75fc861191c989b3f8011596a4c0dd2bd2b255a7072a7d94fdb895a724333460405161132d929190611a81565b60405180910390a16001905090565b6000600560008373ffffffffffffffffffffffffffffffffffffffff1673ffffffffffffffffffffffffffffffffffffffff168152602001908152602001600020549050919050565b600061139861139384611bb5565b611b90565b905080838252602082019050828560208602820111156113bb576113ba611e31565b5b60005b858110156113eb57816113d188826114cd565b8452602084019350602083019250506001810190506113be565b5050509392505050565b60008135905061140481612017565b92915050565b6000813590506114198161202e565b92915050565b600082601f83011261143457611433611e2c565b5b8151611444848260208601611385565b91505092915050565b60008151905061145c81612045565b92915050565b60008083601f84011261147857611477611e2c565b5b8235905067ffffffffffffffff81111561149557611494611e27565b5b6020830191508360018202830111156114b1576114b0611e31565b5b9250929050565b6000813590506114c78161205c565b92915050565b6000815190506114dc8161205c565b92915050565b6000602082840312156114f8576114f7611e3b565b5b6000611506848285016113f5565b91505092915050565b60006020828403121561152557611524611e3b565b5b600082015167ffffffffffffffff81111561154357611542611e36565b5b61154f8482850161141f565b91505092915050565b60006020828403121561156e5761156d611e3b565b5b600061157c8482850161144d565b91505092915050565b6000806020838503121561159c5761159b611e3b565b5b600083013567ffffffffffffffff8111156115ba576115b9611e36565b5b6115c685828601611462565b92509250509250929050565b6000602082840312156115e8576115e7611e3b565b5b60006115f6848285016114b8565b91505092915050565b60006020828403121561161557611614611e3b565b5b6000611623848285016114cd565b91505092915050565b6000806040838503121561164357611642611e3b565b5b6000611651858286016114b8565b92505060206116628582860161140a565b9150509250929050565b60006116788383611684565b60208301905092915050565b61168d81611cdc565b82525050565b61169c81611cdc565b82525050565b60006116ad82611bf1565b6116b78185611c14565b93506116c283611be1565b8060005b838110156116f35781516116da888261166c565b97506116e583611c07565b9250506001810190506116c6565b5085935050505092915050565b61170981611d00565b82525050565b600061171a82611bfc565b6117248185611c25565b9350611734818560208601611d36565b61173d81611e40565b840191505092915050565b6000611755601a83611c41565b915061176082611e51565b602082019050919050565b6000611778601083611c41565b915061178382611e7a565b602082019050919050565b600061179b601f83611c41565b91506117a682611ea3565b602082019050919050565b60006117be600583611c41565b91506117c982611ecc565b602082019050919050565b60006117e1600b83611c41565b91506117ec82611ef5565b602082019050919050565b6000611804601183611c41565b915061180f82611f1e565b602082019050919050565b6000611827600b83611c41565b915061183282611f47565b602082019050919050565b600061184a601383611c41565b915061185582611f70565b602082019050919050565b600061186d601683611c41565b915061187882611f99565b602082019050919050565b6000611890600083611c36565b915061189b82611fc2565b600082019050919050565b60006118b3601683611c41565b91506118be82611fc5565b602082019050919050565b60006118d6601283611c41565b91506118e182611fee565b602082019050919050565b6118f581611d2c565b82525050565b600061190682611883565b9150819050919050565b60006020820190506119256000830184611693565b92915050565b60006040820190506119406000830185611693565b61194d60208301846118ec565b9392505050565b6000602082019050818103600083015261196e81846116a2565b905092915050565b600060208201905061198b6000830184611700565b92915050565b60006040820190506119a66000830185611700565b81810360208301526119b8818461170f565b90509392505050565b600060208201905081810360008301526119da81611748565b9050919050565b600060208201905081810360008301526119fa8161176b565b9050919050565b60006020820190508181036000830152611a1a8161178e565b9050919050565b60006020820190508181036000830152611a3a816117b1565b9050919050565b60006020820190508181036000830152611a5a816117d4565b9050919050565b60006020820190508181036000830152611a7a816117f7565b9050919050565b60006060820190508181036000830152611a9a8161181a565b9050611aa96020830185611693565b611ab660408301846118ec565b9392505050565b60006060820190508181036000830152611ad68161183d565b9050611ae56020830185611693565b611af260408301846118ec565b9392505050565b60006060820190508181036000830152611b1281611860565b9050611b216020830185611693565b611b2e60408301846118ec565b9392505050565b60006020820190508181036000830152611b4e816118a6565b9050919050565b60006020820190508181036000830152611b6e816118c9565b9050919050565b6000602082019050611b8a60008301846118ec565b92915050565b6000611b9a611bab565b9050611ba68282611d69565b919050565b6000604051905090565b600067ffffffffffffffff821115611bd057611bcf611df8565b5b602082029050602081019050919050565b6000819050602082019050919050565b600081519050919050565b600081519050919050565b6000602082019050919050565b600082825260208201905092915050565b600082825260208201905092915050565b600081905092915050565b600082825260208201905092915050565b6000611c5d82611d2c565b9150611c6883611d2c565b9250827fffffffffffffffffffffffffffffffffffffffffffffffffffffffffffffffff03821115611c9d57611c9c611d9a565b5b828201905092915050565b6000611cb382611d2c565b9150611cbe83611d2c565b925082821015611cd157611cd0611d9a565b5b828203905092915050565b6000611ce782611d0c565b9050919050565b6000611cf982611d0c565b9050919050565b60008115159050919050565b600073ffffffffffffffffffffffffffffffffffffffff82169050919050565b6000819050919050565b60005b83811015611d54578082015181840152602081019050611d39565b83811115611d63576000848401525b50505050565b611d7282611e40565b810181811067ffffffffffffffff82111715611d9157611d90611df8565b5b80604052505050565b7f4e487b7100000000000000000000000000000000000000000000000000000000600052601160045260246000fd5b7f4e487b7100000000000000000000000000000000000000000000000000000000600052603260045260246000fd5b7f4e487b7100000000000000000000000000000000000000000000000000000000600052604160045260246000fd5b600080fd5b600080fd5b600080fd5b600080fd5b600080fd5b6000601f19601f8301169050919050565b7f7a65726f2062616c616e6365206e6f7420737570706f72746564000000000000600082015250565b7f4e6f7420656e6f7567682066756e647300000000000000000000000000000000600082015250565b7f436f6d7074726f6c6c65722e656e7465724d61726b657473206661696c656400600082015250565b7f4552524f52000000000000000000000000000000000000000000000000000000600082015250565b7f4e6f7420576f726b696e67000000000000000000000000000000000000000000600082015250565b7f494e434f52524543542041444452455353000000000000000000000000000000600082015250565b7f4e65772062616c616e6365000000000000000000000000000000000000000000600082015250565b7f5472616e736665722073756363657366756c6c00000000000000000000000000600082015250565b7f4e657720434845434b4f55542052455155455354454400000000000000000000600082015250565b50565b7f4572726f7220696e207265706179426f72726f77282900000000000000000000600082015250565b7f5472616e73616374696f6e204661696c65640000000000000000000000000000600082015250565b61202081611cdc565b811461202b57600080fd5b50565b61203781611cee565b811461204257600080fd5b50565b61204e81611d00565b811461205957600080fd5b50565b61206581611d2c565b811461207057600080fd5b5056fea264697066735822122067dd4ea68a21399d2511ee3873c3982686b3c8665f723e84f5f9595b087c9c4a64736f6c63430008070033",
  "linkReferences": {},
  "deployedLinkReferences": {}
}